:020000040800F2
:1000000008040020010100089D030008690200089F
:100010009903000849010008990700080000000042
:10002000000000000000000000000000550400086F
:100030004D010008000000001104000869050008D7
:100040001B0100081B0100081B0100081B01000820
:100050001B0100081B0100081B0100081B01000810
:100060001B0100081B0100081B0100081B01000800
:100070001B0100081B0100081B0100081B010008F0
:100080001B0100081B0100081B0100081B010008E0
:100090001B0100081B0100081B0100081B010008D0
:1000A0001B0100081B0100081B0100081B010008C0
:1000B0001B0100081B010008090600081B010008BD
:1000C0001B0100081B0100081B0100081B010008A0
:1000D0001B0100081B0100081B0100081B01000890
:1000E0001B0100081B0100081B010008DFF80CD0F1
:1000F00000F018F80048004709080008080400202C
:100100000648804706480047FEE7FEE7FEE7FEE7B1
:10011000FEE7FEE7FEE7FEE7FEE7FEE7A9050008CB
:10012000ED000008064C074D06E0E06840F00103D2
:1001300094E8070098471034AC42F6D3FFF7DAFF93
:10014000500800087008000800BFFEE770472DE95E
:10015000F04102460025002600200023002400274D
:1001600091F803C00CF00F0591F803C00CF0100CCF
:10017000BCF1000F03D091F802C04CEA050591F8DC
:1001800000C0BCF1000F31D0146800202BE04FF00C
:10019000010C0CFA00F3B1F800C00CEA03069E4211
:1001A00020D183004FF00F0C0CFA03F7BC4305FA83
:1001B00003FC4CEA040491F803C0BCF1280F06D1FB
:1001C0004FF0010C0CFA00FCC2F814C00AE091F8E0
:1001D00003C0BCF1480F05D14FF0010C0CFA00FC34
:1001E000C2F810C0401C0828D1D31460B1F800C078
:1001F000BCF1FF0F34DD546800202EE000F1080C44
:100200004FF0010808FA0CF3B1F800C00CEA03063D
:100210009E4221D183004FF00F0C0CFA03F7BC4330
:1002200005FA03FC4CEA040491F803C0BCF1280F62
:1002300005D100F1080C08FA0CF8C2F8148091F806
:1002400003C0BCF1480F07D100F1080C4FF00108C2
:1002500008FA0CF8C2F81080401C0828CED354606D
:10026000BDE8F0810161704700BFFEE708B50121DC
:10027000102000F0DFF80121042000F0DBF801215C
:10028000042000F0D7F80121042000F0D3F8012168
:10029000042000F0CFF80121042000F0CBF8012168
:1002A000042000F0C7F80121042000F0C3F8012168
:1002B000042000F0BFF84FF40050ADF8000010200B
:1002C0008DF8030003208DF8020069463048FFF7DF
:1002D0003EFF4FF400512E48FFF7C4FF0120ADF858
:1002E000000069462B48FFF732FF01212948FFF73C
:1002F000B9FF0220ADF8000069462648FFF727FF46
:1003000002212448FFF7AEFF0420ADF80000694643
:100310002048FFF71CFF04211E48FFF7A3FF082019
:10032000ADF8000069461B48FFF711FF0821194886
:10033000FFF798FF1020ADF8000069461548FFF759
:1003400006FF10211348FFF78DFF2020ADF80000B5
:1003500069461048FFF7FBFE20210E48FFF782FF99
:100360004020ADF8000069460A48FFF7F0FE402142
:100370000848FFF777FF8020ADF800006946054880
:10038000FFF7E5FE80210348FFF76CFF08BD000082
:10039000001001400008014000BFFEE77047000068
:1003A00070B5002100230F22C47804B3154C2468D3
:1003B00004F4E064C4F5E064210AC1F10403CA4016
:1003C000447804FA03F184781440214309010E4C67
:1003D0000678A155047804F01F050124AC40057887
:1003E0006D11AD0005F1E025C5F8004109E0047884
:1003F00004F01F050124AC40044D0678761145F841
:10040000264070BD0CED00E000E400E080E100E07B
:100410007047000029B1064AD2690243044BDA61F1
:1004200004E0034AD2698243014BDA61704700005D
:100430000010024029B1064A92690243044B9A61B6
:1004400004E0034A92698243014B9A6170470000BD
:1004500000100240704710B500F002F810BD000017
:100460000CB50020019000903348006840F48030C3
:100470003149086000BF3048006800F40030009047
:100480000198401C0190009818B90198B0F5A06F30
:10049000F1D12948006800F4003010B1012000902B
:1004A00001E0002000900098012843D12348006813
:1004B00040F01000214908600846006820F0030061
:1004C00008600846006840F0020008601A4840686A
:1004D000194948600846406848600846406840F44A
:1004E000806048600846406820F47C1048600846F8
:1004F000406840F4E81048600846006840F08070AA
:10050000086000BF0C48006800F000700028F9D0B7
:100510000948406820F003000749486008464068E1
:1005200040F00200486000BF0348406800F00C0043
:100530000828F9D10CBD0000001002400020024044
:10054000042808D14FF0E021096941F004014FF07F
:10055000E022116107E04FF0E021096921F0040178
:100560004FF0E022116170477047000010B504465B
:100570006FF00400FFF7E4FFE11704EB5171C1F3E2
:10058000C701074A11701046007800EB4001C1EB2B
:10059000C0104FF6FF7101EAC0000249088010BD8B
:1005A000000000200200002010B51348006840F051
:1005B00001001149086008464068104908400E498A
:1005C0004860084600680E4908400B490860084624
:1005D000006820F4802008600846406820F4FE008F
:1005E00048604FF41F008860FFF735FF4FF0006050
:1005F0000449086010BD0000001002400000FFF830
:10060000FFFFF6FE08ED00E010B50121084800F0FC
:1006100056F838B10748006808B9012000E000200A
:10062000044908600121024800F03AF810BD0000BA
:1006300000080040800121427FB505460C4601219B
:100640000420FFF7E7FEADF80850ADF804400020A5
:10065000ADF80A00ADF8060001A9104800F04AF80C
:10066000012211460D4800F03BF801210B4800F033
:1006700017F81E208DF8000002208DF801000320DD
:100680008DF8020001208DF803006846FFF788FE10
:100690000121024800F007F87FBD0000000800407B
:1006A000CA430282704721B1028842F001020280EF
:1006B00004E002884FF6FE731A400280704730B59E
:1006C0000246002000230024158A05EA01039589CB
:1006D00005EA010413B10CB1012000E0002030BD97
:1006E0001AB183890B43838102E083898B43838121
:1006F00070470000002202881D4B98420ED01D4B0F
:1007000098420BD0B0F1804F08D01B4B984205D0D7
:100710001A4B984202D01A4B984204D14FF68F736D
:100720001A404B881A43174B984207D0164B9842F1
:1007300004D04FF6FF431A40CB881A4302808B88BF
:1007400083850B8803850A4B98420BD0094B98424E
:1007500008D00E4B984205D00D4B984202D00D4B5D
:10076000984201D10B7A03860123838270470000EF
:10077000002C01400034014000040040000800400B
:10078000000C0040001000400014004000400140F8
:10079000004401400048014000BFFEE702E008C8F5
:1007A000121F08C1002AFAD170477047002001E0EB
:1007B00001C1121F002AFBD1704700000146114AF7
:1007C00012884A434FF0E0235A6100229A611A4688
:1007D000126942F001021A6100BF4FF0E022106975
:1007E00000F001021AB100F48032002AF5D04FF077
:1007F000E022126922F001024FF0E0231A61002288
:100800009A6170470200002000244820FFF7AEFEE6
:10081000FFF72CFD48F69F414FF47A70FFF70CFF6D
:1008200012E0601CC4B20A2094FBF0F100FB1140FE
:1008300038B90648006808B9012000E000200349E3
:1008400008600A20FFF7BAFFEBE70000B40122427C
:100850007008000800000020040000009C07000849
:10086000740800080400002004040000AC0700081D
:040870000000000084
:04000005080000ED02
:00000001FF
